:020000040800F2
:100000003023002021020008671900085318000857
:100010006519000849050008651E00080000000079
:10002000000000000000000000000000890100083E
:100030008305000800000000CD01000871190008C8
:100040003B0200083B0200083B0200083B0200089C
:100050003B0200083B0200083B0200083B0200088C
:100060003B0200083B0200083B0200083B0200087C
:100070003B0200084D0500083B0200083B02000857
:100080003B0200083B0200083B0200083B0200085C
:100090003B0200083B0200083B0200083B0200084C
:1000A0003B0200083B0200083B0200083B0200083C
:1000B0003B0200083B020008ED1900083B02000863
:1000C0003B0200083B0200083B0200083B0200081C
:1000D0003B0200083B0200083B020008591E0008D2
:1000E0003B0200083B0200083B02000800F002F857
:1000F00000F03AF80AA090E8000C82448344AAF188
:100100000107DA4501D100F02FF8AFF2090EBAE885
:100110000F0013F0010F18BFFB1A43F0010318473B
:100120007438000094380000103A24BF78C878C1B1
:10013000FAD8520724BF30C830C144BF04680C60ED
:10014000704700000023002400250026103A28BF35
:1001500078C1FBD8520728BF30C148BF0B60704739
:100160001FB51FBD10B510BD00F09CF91146FFF77B
:10017000F7FF01F088FE00F0BAF903B4FFF7F2FFD1
:1001800003BC00F041F90000224B19680868B0E890
:10019000F00F80F30988BFF36F8F4FF0000080F3FA
:1001A00011884EF00D0E70470000000006480068F0
:1001B000006880F3088862B661B6BFF34F8FBFF363
:1001C0006F8F00DF00BF00BF08ED00E0EFF3098094
:1001D000BFF36F8F0F4B1A6820E9F00F106008B55E
:1001E0004FF0500080F31188BFF34F8FBFF36F8F34
:1001F00002F050FE4FF0000080F31188BDE8084087
:1002000019680868B0E8F00F80F30988BFF36F8FB2
:10021000704700BF1C000020EFF30580704700000E
:100220000948804709480047FEE7FEE7FEE7FEE78A
:10023000FEE7FEE7FEE7FEE7FEE7FEE704480549C6
:10024000054A064B70470000E9190008ED00000858
:10025000301D002030230020301F0020301F0020E0
:1002600010B5002000F0D6F8FFF77CFFBDE8104085
:10027000012000F0C9B810B5431C02E010F8011BC2
:1002800071B18107FAD14FF0013202C88C1A8C4348
:1002900014EAC211F9D0C01A0A0603D0C01E10BD5C
:1002A000C01A10BD0A0401D0801E10BD0902FCD086
:1002B000401E10BD032A40F2308010F0030C00F005
:1002C000158011F8013BBCF1020F624498BF11F890
:1002D00001CB00F8013B38BF11F8013BA2F1040249
:1002E00098BF00F801CB38BF00F8013B11F00303C1
:1002F00000F02580083AC0F0088051F8043B083A25
:1003000051F804CBA0E80810F5E7121D5CBF51F8C6
:10031000043B40F8043BAFF30080D20724BF11F840
:10032000013B11F801CB48BF11F8012B24BF00F8A5
:10033000013B00F801CB48BF00F8012B704710B516
:10034000203AC0F00B80B1E81850203AA0E81850CD
:10035000B1E81850A0E81850BFF4F5AF5FEA027C8E
:1003600024BFB1E81850A0E8185044BF18C918C0FD
:10037000BDE810405FEA827C24BF51F8043B40F89E
:10038000043B08BF7047D20728BF31F8023B48BF83
:1003900011F8012B28BF20F8023B48BF00F8012BC1
:1003A000704702F0FF0343EA032242EA024200F0F0
:1003B0003AB84FF0000200B51346944696462039ED
:1003C00022BFA0E80C50A0E80C50B1F12001BFF40E
:1003D000F7AF090728BFA0E80C5048BF0CC05DF874
:1003E00004EB890028BF40F8042B08BF704748BFC2
:1003F00020F8022B11F0804F18BF00F8012B704736
:10040000704770477047000001491820ABBEFEE7F7
:100410002600020010B500F02DF8BDE8104000F0F5
:1004200023B84FF000020429C0F0128010F0030C32
:100430003FF4C1AFCCF1040CBCF1020F18BF00F8BF
:10044000012BA8BF20F8022BA1EB0C01FFF7B3BFD3
:100450005FEAC17C24BF00F8012B00F8012B48BFE4
:1004600000F8012B70477047002801D0FFF7CCBF80
:100470007047000010B5002102A000F041F80120F3
:1004800010BD0000534947414252543A2041626E28
:100490006F726D616C207465726D696E6174696FE5
:1004A0006E000000754600F04BF8AE460500694648
:1004B000534620F00700854618B020B5FFF7BEFE72
:1004C000BDE820404FF000064FF000074FF0000855
:1004D0004FF0000B21F00701AC46ACE8C009ACE8D6
:1004E000C009ACE8C009ACE8C0098D46704710B53A
:1004F0000446AFF300802046BDE81040FFF73DBE44
:1005000070B505460C460A2000E06D1C00F011F89D
:1005100035B128780028F8D102E0641C00F009F811
:1005200014B120780028F8D1BDE870400A20AFF35C
:10053000008008B569468DF800000320ABBE08BDF9
:1005400000487047D01C0020FEE70000014800F082
:100550008BB800007003002030B590F840500124A3
:10056000AC40C56B6C60046863604368102B036823
:1005700003D099600068C26030BD9A600068C160B5
:1005800030BD704772B6FEE710B590F8211000221A
:10059000022905D00421816380F82020012010BDAC
:1005A00001680B6823F00E030B6001680B6823F0F1
:1005B00001030B6090F84030C46B012101FA03F392
:1005C000636080F8211080F82020104610BD0000E4
:1005D00010B590F821100024022903D00421816372
:1005E00001243DE001680A6822F00E020A600168F9
:1005F0000A6822F001020A601A4A0168914201D198
:10060000012121E0174A1432914201D110211BE04F
:10061000144A2832914201D1891515E0114A3C3221
:10062000914201D189140FE00E4A5032914202D119
:100630004FF4803108E00B4A6432914202D14FF40A
:10064000801101E04FF08071064A083A51600121A3
:1006500080F82110002180F82010416B01B18847FB
:10066000204610BD080002402DE9F05FC16B0C6808
:1006700001680B68D0F840C0042202FA0CF2494D20
:10068000DFF824A1494E4A4FDFF828B1DFF828E10E
:1006900022422CD05A072AD50A68920603D40A6847
:1006A00022F004020A600168A94201D1042219E083
:1006B000514501D1402215E0B14202D14FF4806290
:1006C00010E0B94202D14FF480420BE0594502D10B
:1006D0004FF4802206E0714502D14FF4800201E020
:1006E0004FF080622F4908394A60C16A3BE04FF001
:1006F000020808FA0CF818EA040F4FF000094FF04E
:10070000010235D05FEA837832D50B689B0605D4A9
:100710000B6823F00A030B6080F821200168A942CE
:1007200001D1022219E0514501D1202215E0B14248
:1007300002D14FF4007210E0B94202D14FF40052DE
:100740000BE0594502D14FF4003206E0714502D169
:100750004FF4001201E04FF00072124908394A606C
:1007600080F82090816A00291AD0BDE8F05F084720
:10077000082505FA0CF5254212D01B0710D50B6889
:1007800023F00E030B6090F84010C36B02FA01F1E6
:100790005960826380F8212080F82090016BE2E7A5
:1007A000BDE8F09F080002401C00024030000240FB
:1007B00044000240580002406C00024030B528B3AB
:1007C00008C8134914221944B1FBF2F18900C1632E
:1007D00010498163022141771A6843F6F0718A4318
:1007E000D0E900142143D0E902452C432143046998
:1007F0002143446921438469214311431960002145
:100800004163012242770177084630BD012030BDA7
:10081000F8FFFDBF0000024070B5044690F82000CC
:10082000002501280CD0012084F8200094F82160D4
:100830000020012E06D084F820000225284670BD35
:10084000022070BD022684F82160A063206806683B
:1008500026F0010606602046FFF77EFEE06A0028CB
:100860002068016802D041F00E0106E021F0040189
:1008700001602068016841F00A0101602068016898
:1008800041F001010160D9E72DE9F84FDFF8B89197
:100890000024A9F1040B23460F2709F1040AABF148
:1008A000040EC9E00125A5402A40AA427DD1674E29
:1008B000D1F804C0ACEB0608B44532D014DCBCF16E
:1008C000030F3AD009DCBCF1000F2AD0BCF1010FB4
:1008D0001CD0BCF1020F31D11DE0BCF1110F17D0BB
:1008E000BCF1120F2AD119E0B8F5881F19D006DC27
:1008F000B8F5803F15D0B8F5801F1FD111E0B8F5CD
:10090000001F0ED0B8F5041F18D10AE0CB6815E01F
:10091000CB681B1D12E0CB6808330FE0CB680C33AB
:100920000CE08B682BB1012B4FF0080303D045611D
:1009300004E0042302E0056100E00023FF2A01D85F
:10094000064601E000F104064FEA840501D9A5F14D
:100950002005D6F8008007FA05FC28EA0C0803FAFF
:1009600005F548EA0508C6F800804D68ED0062D537
:10097000374DAE6946F00106AE61AD6924F003065D
:1009800005F001050095334D06EB050CDCF8085029
:10099000A607360F07FA06F825EA0805DFF8B8803B
:1009A000404503D14FF0000817E044E0DFF8AC8089
:1009B000404502D14FF001080FE0DFF8A480404528
:1009C00002D14FF0020808E0DFF89880404502D1DC
:1009D0004FF0030801E04FF0040808FA06F848EA6F
:1009E0000508CCF808804D68D9F80060ED024D4646
:1009F00001D5164300E096432E604D68DAF800609A
:100A0000AD02554601D5164300E096432E604D6871
:100A1000DBF80060AD035D4601D5164300E0964368
:100A20002E604D68DEF80060ED03754601D5164373
:100A300000E096432E60641C0D682A46E5407FF472
:100A400031AFBDE8F88F000008040140000011102C
:100A5000001002400000014000080140000C01406D
:100A600000100140001401400148806870470000F8
:100A70000C000020024881680278114481607047B0
:100A80000C000020074810B5016841F0100101601A
:100A9000032000F0A7F80F2000F006F800F050F84F
:100AA000002010BD0020024030B505461F4887B029
:100AB000C16941F00401C161C06906A900F00400E8
:100AC000009001A800F036F90498B0B100F052F996
:100AD00040001749174AB0FBF1F11748491E026060
:100AE000416040F2E7320021C0E903218160816169
:100AF00000F018FB040003D015E000F03BF9E8E734
:100B00000D4800F03DFB04000DD11E2000F03CF824
:100B1000102D07D2002229461E2000F043F8074876
:100B2000056000E0012407B0204630BD00100240FF
:100B300040420F0000080040B403002010000020D5
:100B40000F4808B5816941F001018161816901F0B7
:100B500001010091C16941F08051C161C069002269
:100B600000F0805000900F21901E00F01BF8054807
:100B7000416821F0E06141F00071416008BD000072
:100B80000010024000000140002809DB00F01F02B5
:100B9000012191404009800000F1E020C0F80011DF
:100BA00070470000F0B40E4B1B680C46C3F30223E1
:100BB000C3F10705042D00D90425191D072901D209
:100BC000002300E0DB1E012606FA05F1491E214044
:100BD00099409E40761E16403143F0BC01F043B967
:100BE0000CED00E0064900F0070208684FF6FF032D
:100BF000184040EA0220034A104308607047000092
:100C00000CED00E00000FA052DE9F0470F46050065
:100C100061D0434E306800F00700B84209D2306816
:100C200020F0070038433060306800F00700B84219
:100C300051D128683B4C810712D5400703D5606825
:100C400040F4E06060602878000703D5606840F4F5
:100C5000605060606068A96820F0F0000843606040
:100C60002878C00728D06868012810D02168022899
:100C700010D0890700292EDA616821F003010143B1
:100C80006160FFF7F1FE804641F288390DE021688E
:100C90008903EFE78901EDE7FFF7E6FEA0EB080126
:100CA000494502D90320BDE8F0876068696800F013
:100CB0000C00B0EB810FEFD1306800F00700B842B4
:100CC0000BD9306820F0070038433060306800F0FE
:100CD0000700B84201D00120E5E72878400705D594
:100CE0006068E96820F4E0600843606028780007E5
:100CF00006D56068296920F4605040EAC100606050
:100D000000F058F86168084AC1F30311515CC8400B
:100D10000649086006480068FFF7C6FE0020C2E7E3
:100D20000020024000100240563900081800002040
:100D3000100000200F2202600C4A536803F00303E6
:100D40004360536803F0F0038360536803F4E06387
:100D5000C36052684FF4E06303EAD20202610448C0
:100D6000006800F0070008607047000000100240B3
:100D7000002002400448054900684968044AC1F35C
:100D80000221515CC840704718000020001002404A
:100D9000663900080448054900684968044AC1F3F7
:100DA000C221515CC840704718000020001002406A
:100DB000663900080E4A51680E4801F00C03042BF6
:100DC00011D0082B0FD10C48C1F38343C903C05C79
:100DD0000AD55168084AC1F34041921E515C054A48
:100DE0005043B0FBF1F0704704494843704700009E
:100DF0000010024000127A004639000800093D0048
:100E00002DE9F84F040070D02078C04DC00749D0BC
:100E10006868C0F38100012807D06868C0F38100CA
:100E2000022809D16868C00306D52868800339D52F
:100E300060680028E7D035E06068B0F5803F0BD0EF
:100E400010B1B0F5A02F11D0286820F480302860B0
:100E5000286820F4802002E0286840F48030286070
:100E6000606890B1FFF700FE06460AE0286840F48B
:100E700080202860F0E700BFFFF7F6FD801B6428A4
:100E800073D828688003F7D50CE0FFF7EDFD064620
:100E900005E000BFFFF7E8FD801B6428F0D8286854
:100EA0008003F7D420789A4E80074FF001094FF065
:100EB000000839D5686810F00C0F07D06868C0F3D7
:100EC0008100022809D16868C00306D42868800719
:100ED00014D52069012808D110E02069B0B1C6F806
:100EE0000090FFF7C1FD074605E00AE1FFF7BCFDF2
:100EF000C01B0228C4D828688007F7D52868616914
:100F000020F0F80040EAC10028600DE0C6F800803B
:100F1000FFF7AAFD074604E0FFF7A6FDC01B022865
:100F200023D828688007F7D4207800072CD5794883
:100F3000A169D9B1C0F80090FFF796FD074604E01B
:100F4000FFF792FDC01B02280FD8686A8007F7D50B
:100F500071484FF4FA510068B0FBF1F0009000BF07
:100F60000098411E0091FAD20EE080E0C0F80080A7
:100F7000FFF77AFD074604E0FFF776FDC01B022865
:100F800075D8686A8007F7D42078400760D5E8698B
:100F90000027C00008D4E86940F08050E861E869A3
:100FA000012700F0805000905C480168C90513D407
:100FB0000168834641F480710160FFF755FD824668
:100FC00006E000BFFFF750FDA0EB0A0064284ED8F2
:100FD000DBF80000C005F5D5E06801280AD008B1AB
:100FE000052813D0286A20F001002862286A20F022
:100FF000040002E0286A40F001002862E06841F243
:10100000883B98B1FFF730FD82460BE0286A40F03C
:1010100004002862EEE700BFFFF726FDA0EB0A01FF
:1010200059455AD8286A8007F6D50CE0FFF71CFD11
:10103000824605E0FFF718FDA0EB0A0159454CD8A0
:10104000286A8007F6D41FB1E86920F08050E86173
:10105000E06988B36968C1F38101022944D002289C
:10106000C6F8608004D0FFF7FFFC044638E034E0A7
:10107000FFF7FAFC074604E0FFF7F6FCC01B022866
:101080002BD828688001F7D4206AB0F5803F05D1BD
:101090006868A16820F4003008436860D4E908015A
:1010A0000843696821F4741108436860C6F86090C9
:1010B000FFF7DAFC044606E025E000BFFFF7D4FCAA
:1010C000001B022809D828688001F7D51BE000BF63
:1010D000FFF7CAFC001B022802D90320BDE8F88FE5
:1010E00028688001F4D40EE00128F7D06868226AED
:1010F00000F48031914204D1616A00F4701088429A
:1011000001D00120EAE70020E8E7000000100240DB
:10111000000042428004424218000020007000405B
:101120007047704710B5040003D094F83D0010B12B
:1011300007E0012010BD002084F83C00204600F0AC
:101140001EF8022084F83D00211D206800F054FCA8
:10115000012084F8460084F83E0084F83F0084F8BB
:10116000400084F8410084F8420084F8430084F889
:10117000440084F8450084F83D00002010BD70470D
:1011800090F83D10012901D001207047022180F81C
:101190003D100168CA6842F00102CA6000680B494C
:1011A000884208D0B0F1804F05D00949884202D06A
:1011B0000849884204D1816801F00701062903D05B
:1011C000016841F00101016000207047002C0140DE
:1011D000000400400008004070472DE9F04104463B
:1011E0000068C66805694FF00007A90713D5B10765
:1011F00011D5F91E016101202077206880698007E0
:10120000204602D0FFF7E8FF04E000F07EF8204619
:1012100000F07CF82777680716D5700714D5216889
:101220006FF004000861022020772068806910F4C4
:10123000407F204602D0FFF7CFFF04E000F065F8C2
:10124000204600F063F82777280715D5300713D517
:1012500021686FF008000861042020772068C069C9
:101260008007204602D0FFF7B7FF04E000F04DF8FA
:10127000204600F04BF82777E80616D5F00614D57F
:1012800021686FF010000861082020772068C0698D
:1012900010F4407F204602D0FFF79EFF04E000F0EC
:1012A00034F8204600F032F82777E80708D0F00736
:1012B00006D021686FF001000861204600F028F890
:1012C000280608D5300606D521686FF08000086131
:1012D0002046FFF725FF680608D5700606D5216869
:1012E0006FF040000861204600F01CF8A8060AD5FF
:1012F000B00608D521686FF0200008612046BDE8DF
:10130000F041FFF70EBFBDE8F08170477047000065
:1013100000680349884201D1FFF7ACBB7047000069
:1013200000080040704738B5044690F84200202875
:1013300001D0022038BD51B14AB101202063002004
:101340006063204600F006FD216B012901D00120D9
:1013500038BD21680A684968009121680C3151E85C
:10136000002F42F0100241E80023002BF5D138BDD8
:1013700010B50C46006813498AB0884220D1124942
:10138000224601F5207001F011FBA0420DD224226B
:101390000EA16846FEF7D3FF6846FEF76CFF82B2E7
:1013A00064236946124800F003FA80220649104877
:1013B000FFF7B9FF0F480068016821F004010160E0
:1013C0000AB010BD004800409C0000200D0A5B5789
:1013D00041524E494E475D2052696E6720627566E4
:1013E000666572206F766572666C6F77210D0A00F4
:1013F000280300207003002010B5006807498842C8
:101400000AD1802206490748FFF78DFF0648006889
:10141000016821F00401016010BD00000048004097
:101420009C0000202803002070030020F8B501680C
:1014300004460868CA684B6910F00F0F4FF00005AA
:1014400059D003F0010602F49077374365D0C10705
:1014500005D0D10503D5616C41F0010161644107FC
:1014600005D5D90703D0616C41F0020161648107A1
:1014700005D5D90703D0616C41F00401616401070F
:1014800007D502F02001314303D0616C41F008011F
:101490006164616C00293AD0800604D5900602D5BB
:1014A000204600F099FB20684069616CC0F3801011
:1014B000090700D460B3204600F059FB206840695A
:1014C000400621D52068143050E8001F21F040016B
:1014D00040E80012002AF5D1E06BA8B16D494163E4
:1014E000E06BFFF775F8002811D0E06B416B01B09D
:1014F000BDE8F040084783060FD593060DD520467A
:10150000BDE8F84000F068BB2046FFF775FFF8BD66
:101510002046FFF771FF6564F8BD266B2023012E7E
:101520007CD1C6067AD5D60678D50868486800907A
:1015300048694FF00206400640D5E16B08684068F4
:101540000004000CE8D0A28D8242E5D9E0858869CC
:1015500020282DD020680C3050E8001F21F4807125
:1015600040E80012002AF5D12068143050E8001F2E
:1015700021F0010140E80012002AF5D12068143062
:1015800050E8001F21F0400140E80012002AF5D188
:1015900084F84230256320680C3050E8001F21F0A9
:1015A000100140E80012002AF5D1E06BFEF7ECFFD5
:1015B0006663A08DE18D401A81B22AE0A08DE18D95
:1015C000401A81B2E08D0028A6D00029A4D022685C
:1015D0000C3252E8000F20F4907042E80007002F10
:1015E000F5D12068143050E8002F22F0010240E8C5
:1015F0000027002FF5D184F84230256320680C3095
:1016000050E8002F22F0100240E80023002BF5D113
:1016100066632046FFF7ACFEF8BDFFE705062BD555
:10162000150629D594F841002128F5D1A068B0F518
:10163000805F01D12069B0B1206A411C216221681C
:1016400000784860E08C401E0004000CE084E3D188
:101650002068C16821F08001C1602068C16841F044
:101660004001C160D8E7206A0088C0F308004860E4
:10167000206A801C2062E5E74006CDD55006CBD518
:10168000CA68204622F04002CA6084F8413000F067
:10169000DFF8C1E7711A000870B5040004D094F8AF
:1016A0004100002510B106E0012070BD84F84050D3
:1016B000204600F023F8242084F841002068C16807
:1016C00021F40051C160204600F0E8FA2068016969
:1016D00021F4904101612068416921F02A014161B2
:1016E0002068C16841F40051C1606564202084F81D
:1016F000410084F842006563002070BD70B586B07B
:10170000002506460095019502950395006822493B
:1017100088423ED12149C86940F48020C861C86927
:1017200000F480200490886940F00800886188698E
:101730001B4C00F008000490081500900220019056
:101740000320039069462046FFF79EF8E014CDE998
:101750000005694620460295FFF796F8124C11489D
:10176000C4E900058020C4E9025025616561A561D6
:101770002046E561FFF722F808B1FEF703FFF463A6
:101780000022052127206662FFF70CFA2720FFF7C9
:10179000FBF906B070BD0000004800400010024098
:1017A000000C014030000240700300207047704779
:1017B0002DE9F843044690F84100984616460D4638
:1017C000202802D00220BDE8F88385B17EB1002038
:1017D0006064212084F84100FFF746F9A684814621
:1017E000E684A0682027B0F5805F02D003E00120E6
:1017F000E9E7206910B12E4600250EE000260CE036
:101800008021204600F0EEFAA8B9C6B116F8010B07
:1018100021684860E08C401EE084E08C4B464FF02D
:101820000002CDF800800028EAD14FF040012046A8
:1018300000F0D8FA40B184F841700320C3E735F8CE
:10184000020BC0F30800E3E784F841700020BAE718
:101850007047FEE7094808B5416941F0010141615F
:101860004069002200F00100009005210D20FFF7E3
:1018700099F9BDE808400D20FFF786B90010024035
:10188000144910B54FF4007201F5007001F076F8BC
:101890001049802280391048FFF745FD0F48006845
:1018A000016821F0040101600D4A0221102000F0BE
:1018B00037FB0C4C0A4A0021A060483A0A4800F065
:1018C0005BFB074A2060243A0021084800F054FBE3
:1018D000606010BD1C010020280300207003002060
:1018E0002C3900080000002069190008452A00086A
:1018F0000D4808B5816941F020018161816901F0DD
:1019000020010091816941F008018161816901F044
:1019100008010091816941F004018161806900F052
:101920000400009008BD0000001002400C4810B5F3
:101930000A4901604FF4E1314160002181600C22CD
:10194000C160C0E904128161C161FFF7A5FE0028F2
:1019500003D0BDE81040FEF715BE10BD00480040A2
:1019600028030020FEE7FEE7012000F09DFAFBE7D8
:1019700010B54FF0E020006901F0FEFD012803D012
:10198000BDE8104001F00CBB10BD30B58FB0282170
:101990006846FEF70EFD14210AA8FEF70AFD012194
:1019A0000804CDE900100024029402250491CDE939
:1019B00007504FF4E01009906846FFF721FA08B18C
:1019C00072B6FEE70F20CDE90A054FF48060CDE93D
:1019D0000C4002210AA80E94FFF716F9002801D046
:1019E00072B6FEE70FB030BD704700000148FFF748
:1019F000F4BB0000B4030020F0B50268194B1A4C88
:101A00001A4D4FF08047984205D0B84203D0A0420B
:101A100001D0A84203D122F070064A6832439842AE
:101A200005D0B84203D0A04201D0A84203D122F48D
:101A30004074CA6822434C6922F08002224302604B
:101A40008A68C2620A688262984201D109690163A8
:101A5000012141610169C90703D0016921F0010138
:101A60000161F0BD002C014000040040000800406E
:101A700010B5406A0021C185C184FFF7BDFC10BDCF
:101A800070B5446A2068406994F84110C0F3C010F2
:101A90000025212904D118B1E584204600F08EF8F4
:101AA0002068406994F84210C0F38010222904D1C4
:101AB00018B1E585204600F05AF8606C40F010003F
:101AC00060642046FFF798FC70BD10B50146406A7F
:101AD000096809684FF0000289062ED4C2850168A2
:101AE0000C3151E8003F23F4807341E80034002CAE
:101AF000F5D10168143151E8003F23F0010341E8BA
:101B00000034002CF5D10168143151E8003F23F076
:101B1000400341E80034002CF5D1202180F8421028
:101B2000016B012909D101680C3151E8003F23F014
:101B3000100341E80034002CF5D14263016B012908
:101B400002D0FFF733FE10BD818DFFF711FC10BDF1
:101B500010B5406A01214163016B012902D0FFF7F2
:101B600026FE10BD818D4908FFF702FC10BD0168FB
:101B70000C3151E8002F22F4907241E80023002B31
:101B8000F5D10168143151E8002F22F0010241E83B
:101B90000023002BF5D1016B012909D101680C311B
:101BA00051E8002F22F0100241E80023002BF5D16C
:101BB000202180F8421000210163704701680C3138
:101BC00051E8002F22F0C00241E80023002BF5D19C
:101BD000202180F84110704708B590F84210222962
:101BE00001D0022008BD82684FF480539A4201D18F
:101BF000016921B1816A9A421BD04AB10AE00268A8
:101C0000816A5268C2F308020A80816A891C08E06E
:101C1000026972B10268526802F07F020A70816A3A
:101C2000491C8162C18D491E0904090CC18503D07C
:101C30001BE002685268F1E70168CA6822F02002DE
:101C4000CA600168CA6822F48072CA6001684A6981
:101C500022F001024A61202180F8421000214163F4
:101C6000026B012A03D0FFF7A1FD002008BD01632C
:101C700001680C3151E8002F22F0100241E80023E6
:101C8000002BF5D101680A68D20602D50A684968B6
:101C90000091818DFFF76CFBE7E7000070B504460B
:101CA00000680169E26821F4405111430161216932
:101CB000A0680843616908432168CA6841F20C635F
:101CC0009A430243CA6020684169A26921F44071C5
:101CD000114341611E492068884202D1FFF75AF83A
:101CE00001E0FFF747F800EBC00101EB001260686C
:101CF00064218000B2FBF0F3B3FBF1F36FF0180640
:101D00007343B2FBF0F5B2FBF0F605EB830532232B
:101D100003EB0515B5FBF1F5B6FBF1F605F0F005A3
:101D200005EB0615B2FBF0F6B2FBF0F0B0FBF1F0FC
:101D30006FF01802504306EB800003EB0010B0FB7D
:101D4000F1F0216800F00F002844886070BD0000A9
:101D50000038014038B58162044682850020134670
:101D60006064222284F84220E56B1B4AAA62E56B7C
:101D70001A4AEA62E56B1A4A2A63E26B50630A4622
:101D80002168E06B091DFEF747FD20680168406887
:101D90000090206948B120680C3050E8001F41F4E1
:101DA000807140E80012002AF5D12068143050E814
:101DB000001F41F0010140E80012002AF5D120681F
:101DC000143050E8001F41F0400140E80012002AA2
:101DD000F5D1002038BD0000CB1A0008511B0008C7
:101DE000811A00082DE9F843984617460D46044627
:101DF000089E24E0701C22D0FEF736FEA0EB0800FF
:101E0000B0421AD8CEB12068C168490717D5802DD5
:101E100015D0402D13D00168C94309070FD40168BC
:101E20000025406800902046FFF7A1FE082060646E
:101E300084F840500120BDE8F8830320FBE72068C8
:101E4000006835EA000004D00020B842D2D000205B
:101E5000F1E70120F9E700000148FFF7E7BA0000C9
:101E600028030020FEE70907090E002804DB00F123
:101E7000E02080F80014704700F00F0000F1E0202F
:101E800080F8141D7047FEF7FDFDFFF77EFDFFF79C
:101E90002FFDFFF7DFFCFFF749FD00F013F8FFF718
:101EA000EFFC00F021F8FEE710B5EFF3058111B16A
:101EB0006FF0050403E0002408B100F037FF20466E
:101EC00010BD0000EFF3058010B16FF00500704702
:101ED0000448016811B14FF0FF30704701210160E3
:101EE000002070476C00002010B5EFF3058010B1A2
:101EF0006FF0050010BD08480168012902D04FF0BD
:101F0000FF3010BD054A002182F8141D0221016036
:101F100000F074FF002010BD6C0000200BE000E01A
:101F2000F8B514464FF00005EFF3058212BB08B375
:101F300001B3A4B1D4E9023263B1502A1AD32269A1
:101F4000C2B1676900FB01F6B74213D3009501F0F7
:101F50005EF807E072B9226962B9626952B900227B
:101F600001F034F8050005D00CB1216800E0002133
:101F700000F0A6FE2846F8BD2DE9FF414FEA010317
:101F80004FF00005EFF30581039549BB40B380276F
:101F9000182100244AB3166806B1344696691EB16A
:101FA0003146761E382E02D21679F60703D000206D
:101FB00004B0BDE8F081566906B1B708D2F808C090
:101FC000BCF1000F0DD0D5685C2D18D312693AB161
:101FD00036B18DE806103A46214601F0A2FA039088
:101FE0000DE0D6685EB912694AB903AACDE90012BC
:101FF000BAB2214601F068FA012800D0039503988F
:10200000D6E7000070B50D4604466423062209A1F8
:102010000A48FFF7CDFBAAB2642321460748FFF721
:10202000C7FBBDE870406423022205A10348FFF707
:10203000BFBB00004563686F3A2000002803002002
:102040000D0A00002DE9F041134C0F460546E668E5
:102050002068001D00F036FD681C07D137B12168EB
:10206000BDE8F0410D48091D00F07CBD20683544F5
:10207000B5424560216805D2A06BBDE8F041091D5D
:1020800000F058BD606B091D00F054FDA06A854248
:1020900000D2A562BDE8F0811C000020EC08002001
:1020A0002DE9F041054600F069FD2D4CA068401C6B
:1020B000A06020682B4F10B1606930B32BE0256021
:1020C000A068012827D1002606EB860007EB8000D8
:1020D00000F022FD761C382EF6D3234800F01CFDBC
:1020E0002148143000F018FD1F48283000F014FD7E
:1020F0001D483C3000F010FD1B48503000F00CFD36
:10210000194860631430A06305E02068E96AC06A7A
:10211000884200D82560606A401C60626864E86A92
:102120002169884200D9206100EB800007EB800024
:10213000291D00F017FD00F041FD606900280CD05A
:102140002068E96AC06A884207D208494FF0805087
:102150000860BFF34F8FBFF36F8FBDE8F0810000C1
:102160001C0000203C0400209C08002004ED00E03E
:1021700038B500F003FD104C2068C8B90F4800F0D6
:10218000CBFC0E48143000F0C7FC0C48E060143063
:1021900020610A4B0020F03B009003F15002102117
:1021A0000A2000F034FF206010B105A100F088FD86
:1021B000BDE8384000F002BD58000020F0090020C2
:1021C000546D72510000000030B4026C0B46002ABE
:1021D0000BD0C1681144C1608468A14201D3016879
:1021E000C16030BC1846FEF765B830BC70472DE9B9
:1021F000F041856B174604460026026C82B1C7B1D8
:10220000E068FEF757F8E168206C091AE16022687F
:10221000914202D2A168081AE060022F16D017E09E
:102220002068A8B9A06801F01FFA06460020A06047
:102230000EE06068FEF73EF8216C6068084460605C
:10224000A168884204D32068606001E005B16D1E7A
:102250006D1CA5633046BDE8F08110B5044690F8CA
:10226000590058B101280CD002280FD0502080F31B
:102270001188BFF34F8FBFF36F8FFEE7206B00F025
:10228000B1FC2046BDE8104000F0ACBC10BD000021
:1022900010484FF44061420706D0C01D0D4920F0A0
:1022A0000700411AC1F540610B4A00230144C2E90D
:1022B00000030839183A21F0070111604B600B60E8
:1022C0000B1AC0E9001393604FF000405360506157
:1022D00070470000D010002088000020144E154CDC
:1022E000A6F29C474FF08058DFF84C9012E000BFF8
:1022F00000F044FCF068C568281D00F0E3FBA0680E
:10230000401EA0606068401E606000F057FC2846D8
:10231000FFF7A3FF60680028EAD138680128F9D9DF
:10232000C9F80080BFF34F8FBFF36F8FF2E7000053
:10233000D80800201C00002004ED00E070B51D4608
:10234000049C51B1C4F80020C4E90F0101212046CA
:1023500000F090FE84F84C5070BD2460F4E700005B
:102360002DE9F05F8846DDE90B9415468346910020
:102370009A460A9EA522206BFEF713F86FF0030120
:10238000206B01EB8501084420F00707780707D090
:10239000502080F31188BFF34F8FBFF36F8FFEE79C
:1023A0000025B8F1000F0FD05FF00000221818F8D8
:1023B000001082F8341018F8001011B1401C1028D9
:1023C000F4D384F8435001E084F83450382E00D31D
:1023D0003726E662C4E91365201D00F0A8FB04F16E
:1023E000180000F0A4FB2461C6F138006462A0610B
:1023F000656584F8585052465946384600F05AFAF6
:102400002060B9F1000F01D0C9F80040BDE8F09F8D
:1024100030B5114900E011460A688242FBD34B688F
:102420005C18844203D140681844486008464368F9
:102430001C18944209D1084C183C2468A24209D0C7
:1024400052681A4442600A6812680260814200D0F1
:10245000086030BD0460F9E78800002070B50024F2
:1024600041600B4D0061914206D8D11A82699142B8
:1024700006D2011D286907E09A4203D2994201D38E
:10248000012403E0011DE86800F054FB204670BD04
:102490005800002010B5044600F070FBA06B28B176
:1024A0005FF0000400F08AFB204610BD0124F9E72C
:1024B00030B589B03C4D6EE00498002806DADDE9BD
:1024C0000601059A90470498002864DB069C606921
:1024D00010B1201D00F0F6FA03A800F0D7F802466C
:1024E00004980A2857D2DFE800F00505052D334A85
:1024F00005052D3394F8280040F0010084F82800E9
:102500000599A069059B01442046FFF7A7FF68B322
:10251000216A2046884794F8280040073BD50020D0
:1025200000900598A169002342181946204601F041
:10253000A5F9D8B9502080F31188BFF34F8FBFF3AE
:102540006F8FFEE714F8280F20F00100207022E0C2
:1025500094F8280040F0010084F828000598A06154
:1025600028B1811813462046FFF778FF13E050206A
:1025700080F31188BFF34F8FBFF36F8FFEE794F89E
:102580002800810703D4204600F02CFB03E020F054
:10259000010084F82800002204A9286800F0BEFE8B
:1025A000002889D109B030BD580000202DE9FC4138
:1025B0000F46054600F066FC01A800F067F80446E7
:1025C000019818B101F0C8F8BDE8FC81254EAFB103
:1025D00030690068D0B30027291B3A46306800F004
:1025E00083FB01F0B9F80028EED11F494FF080506D
:1025F0000860BFF34F8FBFF36F8FE5E7A542EBD8BD
:1026000001F0AAF8F0682746C068C468201D00F0F1
:1026100059FA94F82800410719D5A0692B464119A9
:102620003A462046FFF71AFFA8B1002003460146AC
:1026300000902A46204601F021F960B9502080F32D
:102640001188BFF34F8FBFF36F8FFEE707E020F0D5
:10265000010084F82800216A20468847B4E7012752
:10266000BAE700005800002004ED00E00648416B86
:10267000096829B1416BC968C968496881627047B6
:102680004FF0FF31FAE700001C00002070B505464E
:1026900000F080FF064E0446B068844203D200F08A
:1026A00009F8012000E0002028602046B46070BDD9
:1026B00058000020F8B5194D20E0C068C4680668CD
:1026C000201D00F0FFF9216A2046884794F8280071
:1026D000400713D5A0693044B04206D92461606038
:1026E000211DE86800F026FA08E0002003460146B4
:1026F00000903246204601F0C1F838B1E868016820
:102700000029DAD12969C5E90310F8BD502080F30A
:102710001188BFF34F8FBFF36F8FFEE75800002083
:1027200008484068401C4FF0500080F3118804D0E6
:10273000BFF34F8FBFF36F8FFEE7BFF34F8FBFF332
:102740006F8FFEE790000020074CE068016841B100
:10275000C0680021D0F80000FFF728FFFFF7A8FEAF
:10276000F3E701210020F7E7580000202DE9F041B0
:10277000044600F003FA94F9455004F1240609E0F8
:10278000606A48B1304600F0AFFF08B100F0FCFAD3
:102790006D1E6DB2002DF3DC4FF0FF3684F84560FE
:1027A00000F00CFA00F0EAF994F9445004F1100733
:1027B00009E0206948B1384600F096FF08B100F002
:1027C000E3FA6D1E6DB2002DF3DC84F84460BDE8C1
:1027D000F04100F0F3B900002DE9F0410546002773
:1027E00000F050FB324E306808B9FFF751FD7069B8
:1027F00005424ED1C5B3083568070ED005F0070075
:10280000C0F108000544680707D0502080F3118804
:10281000BFF34F8FBFF36F8FFEE72DB37068854214
:1028200037D82348183001460C6801E020460C4692
:102830006168A94202D221680029F7D131688C422F
:1028400027D007682168016060680837411B10299C
:102850000FD96019420708D0502080F31188BFF3C8
:102860004F8FBFF36F8FFEE713E041606560FFF7A6
:10287000CFFD61687068401A7060B268904200D203
:10288000B060706901430020C4E90001F068401C99
:10289000F06000F061FF780707D0502080F31188C6
:1028A000BFF34F8FBFF36F8FFEE73846BDE8F0816F
:1028B0007000002010B5031F4FF080741C601B1FB8
:1028C00021F001011960191F024B0B6014394038C7
:1028D0000A6010BD2127000810B5044600F0A2F8D8
:1028E000002808D0012807D0E0884108A0884008C7
:1028F000814204D9081A10BDB4F9080010BDB4F91A
:102900000820401A101A10BD70B515460E46040076
:1029100018D0FFF7E1FF00282FD0A84200D285B2DF
:10292000B4F90810A088A1EB50022168AA4201EB7B
:10293000500109DD2A463046FDF7BCFCA08805EBB6
:10294000500116E0FDF78CFC3046FDF7B3FCB4F9FE
:102950000800A188A0EB51002A1A30442168FDF735
:10296000A9FCA088C14361F300002189A1EB5001BB
:10297000691A61F34F00A080284670BD10B508B1F8
:10298000002A01DCFDF76CFC0379002403F001034D
:1029900064F300038380837903F0010364F300038D
:1029A000C380016022F00301018110BD70B515469E
:1029B0000E4604001AD0FFF78FFFB4F90810081A6A
:1029C0000004000C2DD0A84200D20546E088A1EBFF
:1029D00050022168AA4201EB500009DD2A46314627
:1029E000FDF768FCE08805EB500116E0FDF738FCC8
:1029F0003146FDF75FFCB4F90800E188A0EB510017
:102A00002A1A81192068FDF755FCE088C14361F35B
:102A100000002189A1EB5001691A61F34F00E080A9
:102A2000284670BD8188C0884A08B2EB500F07D194
:102A3000C907B1EBC07F01D100207047012070476A
:102A400002207047CCB02C2211A140A8FDF777FCE2
:102A500040A8FDF710FC82B24FF47A7340A91748E2
:102A6000FEF7A6FE00246D461548FFF735FF50B16E
:102A7000FF2269461248FFF747FF011E03DD6C5431
:102A80006846FFF7BFFA3220FFF70EFAECE70000C6
:102A90003D3D3D2053696D706C6520554152542079
:102AA0004563686F203D3D3D0D0A54797065207384
:102AB0006F6D657468696E673A0D0A00280300201F
:102AC0001C030020D0E9013201699A60D0E901239A
:102AD0005A604A68824201D182684A6000220261DB
:102AE0000868401E0860086870470000034B0360D8
:102AF00003F15C000860802010607047180A002015
:102B0000044B036003F15C0008604FF480701060B8
:102B100070470000740C002000F108014FF0FF32F4
:102B2000C0E90112C160016100210160704700210C
:102B30000161704730B50B685A1C02D000F10802E1
:102B400002E0026904E02246546825689D42FAD9F1
:102B500053684B6099608A60516008610168491C44
:102B6000016030BD42684A6093688B609368596029
:102B7000916008610168491C01607047502080F332
:102B80001188BFF34F8FBFF36F8F0A494868401C0D
:102B9000486001280CD10848006810F0FF0F07D0EA
:102BA000502080F31188BFF34F8FBFF36F8FFEE784
:102BB000704700009000002004ED00E008494868DC
:102BC00028B1401E486001D180F311887047502021
:102BD00080F31188BFF34F8FBFF36F8FFEE70000C4
:102BE0009000002070B500282AD0164DA0F10804EE
:102BF00060686969084207D1502080F31188BFF3EB
:102C00004F8FBFF36F8FFEE722683AB1502080F3F9
:102C10001188BFF34F8FBFF36F8FFEE7884360606B
:102C200000F030F960686968084468602046FFF782
:102C3000EFFB2869401C2861BDE8704000F08CBDA6
:102C400070BD0000700000204FF0E0200021016105
:102C5000816105494FF47A720968B1FBF2F1491EAE
:102C600041610721016170471800002010B5FDF790
:102C7000D3FA114910280ED300F1E02090F8F003A8
:102C80000A78904207D2502080F31188BFF34F8F0B
:102C9000BFF36F8FFEE709480068896800F4E060C1
:102CA000884207D9502080F31188BFF34F8FBFF3BC
:102CB0006F8FFEE710BD0000900000200CED00E0DB
:102CC00010B5084B002200BF53F832401CB1521C13
:102CD000082AF9D310BD43F8321003EBC201486053
:102CE00010BD0000FC03002070B515460E460446DA
:102CF000FFF744FF94F944100020491C01D184F8E7
:102D0000440094F94510491C01D184F84500FFF7AF
:102D100055FFA06B28B92A46314604F1240000F083
:102D200051F82046BDE87040FFF720BD10B5020005
:102D300014D00F48006B38B1502080F31188BFF3D6
:102D40004F8FBFF36F8FFEE700F09CF80021104615
:102D5000FFF778F900F000FD002807D105494FF092
:102D600080500860BFF34F8FBFF36F8F10BD00001E
:102D70001C00002004ED00E002490A6A0260C968F4
:102D8000416070471C00002001490120C861704764
:102D90001C00002010B50C4650B1094909681831D3
:102DA000FFF7C8FE2046BDE810400121FFF74AB9F1
:102DB000502080F31188BFF34F8FBFF36F8FFEE772
:102DC0001C00002070B514460D4668B10A49096818
:102DD0001831FFF7C7FE0CB14FF0FF3521462846EA
:102DE000BDE87040FFF72EB9502080F31188BFF383
:102DF0004F8FBFF36F8FFEE71C00002030B587B008
:102E00000024039405AA04A903A80494FFF76EFE06
:102E1000DDE903010094CDE90110002315A1174855
:102E2000059A00F07EFB164D0028E8621FD000F0E6
:102E3000F5FC012809D0401C19D1502080F31188DD
:102E4000BFF34F8FBFF36F8FFEE7502080F31188E1
:102E5000BFF34F8FBFF36F8F4FF0FF30A862012099
:102E60006861EC6007B0BDE8304000F045B807B0DD
:102E700030BD000049444C4500000000DD22000840
:102E80001C0000200248016B491C016370470000D0
:102E90001C000020164810B5016B11B10121C16161
:102EA00010BD0021C1610169124A01E0B9B1491E9A
:102EB00001EB810352F82330002BF7D001EB8103A3
:102EC00002EB830202F1080453685B685360A3427B
:102ED00001D15B685360DA680260016110BD502067
:102EE00080F31188BFF34F8FBFF36F8FFEE70000B1
:102EF0001C0000203C0400201CB5264908780190E5
:102F0000FF20087008788DF800009DF800009DF8FB
:102F1000002000F0F000904207D0502080F311888C
:102F2000BFF34F8FBFF36F8FFEE79DF800001A4C81
:102F300000F0500020700720A06005E09DF8002000
:102F400052008DF80020401E9DF800201206F5D496
:102F5000A060032807D0502080F31188BFF34F8F63
:102F6000BFF36F8FFEE74FF44070A06001980870C8
:102F70000A48016841F470010160016841F0704144
:102F80000160FFF761FE00206060FDF70FF900208F
:102F90001CBD000000E400E09000002020ED00E0F7
:102FA00010B5502080F31188BFF34F8FBFF36F8FA0
:102FB00000F0F6FA18B104494FF080500860002084
:102FC00080F3118810BD000004ED00E0F8B517464D
:102FD0000E46050013D005FB06F05030FFF7FCFB52
:102FE00004000AD0002084F8460004F150023B4659
:102FF000314628460094FFF7A1F92046F8BD50203D
:1030000080F31188BFF34F8FBFF36F8FFEE738B5A2
:10301000049D18B153B1CAB181B120E0502080F3B2
:103020001188BFF34F8FBFF36F8FFEE7502080F3FF
:103030001188BFF34F8FBFF36F8FFEE7502080F3EF
:103040001188BFF34F8FBFF36F8FFEE739B1502068
:1030500080F31188BFF34F8FBFF36F8FFEE75024CB
:103060001C46012384F846302B460094FFF766F98E
:10307000204638BD70B50D46040025D0FFF77EFD13
:10308000D4E90F20216802FB0011A1600021A16397
:10309000216861600A46D4E90F01401E00FB01214E
:1030A000E16021464FF0FF3001F8440F487004F111
:1030B00010008DB1FFF730FD04F12400FFF72CFD67
:1030C000FFF77CFD012070BD502080F31188BFF315
:1030D0004F8FBFF36F8FFEE721690029F0D000F01A
:1030E00003FB0028ECD004494FF080500860BFF388
:1030F0004F8FBFF36F8FE3E704ED00E02DE9FF474B
:1031000082B01D468A464FF00008040003D0BAF191
:10311000000F08D011E0502080F31188BFF34F8FCB
:10312000BFF36F8FFEE7206C38B1502080F3118819
:10313000BFF34F8FBFF36F8FFEE7022D0AD1E06B15
:10314000012807D0502080F31188BFF34F8FBFF3C1
:103150006F8FFEE700F010FA3F4F4FF000094FF07D
:10316000805648B9049838B1502080F31188BFF3D5
:103170004F8FBFF36F8FFEE7FFF700FDA06BE16B92
:10318000884207D3022D05D00498D0B1B8F1000FC2
:103190001AD01EE02A4651462046FFF728F8616AF9
:1031A00019B104F1240000F09FFA20B13E60BFF392
:1031B0004F8FBFF36F8FFFF701FD012006B0BDE811
:1031C000F087FFF7FBFC22E06846FFF7D5FD4FF0E4
:1031D0000108FFF7F3FCFFF755FEFFF7CFFC94F96A
:1031E0004400401C01D184F8449094F94500401CEF
:1031F00001D184F84590FFF7E1FC04A9684600F08E
:1032000029F930B12046FFF7B1FA00F0A5FA002005
:10321000D4E7FFF7B3FCA06BE16B884213D1FFF753
:10322000CDFC04F110000499FFF7B4FD2046FFF730
:103230009DFA00F091FA00289ED13E60BFF34F8FB7
:10324000BFF36F8F98E7FFF7B9FC2046FFF78EFAC0
:1032500000F082FA90E7000004ED00E02DE9F0476D
:103260001F4690468946040003D0B9F1000F08D0EC
:1032700011E0502080F31188BFF34F8FBFF36F8FA1
:10328000FEE7206C38B1502080F31188BFF34F8FD8
:10329000BFF36F8FFEE7022F0AD1E06B012807D042
:1032A000502080F31188BFF34F8FBFF36F8FFEE77D
:1032B000FFF7DCFC5020EFF3118680F31188BFF399
:1032C0004F8FBFF36F8FA06BE16B884206D3022F45
:1032D00004D0002086F31188BDE8F08794F94550AA
:1032E000A06B3A4649462046FEF781FF681C04D091
:1032F0006D1C84F845500120ECE7606A0028FAD084
:1033000004F1240000F0F0F90028F4D0B8F1000F27
:10331000F1D00121C8F80010EDE700002DE9F747D2
:10332000002683B08A46040003D0BAF1000F08D00B
:1033300011E0502080F31188BFF34F8FBFF36F8FE0
:10334000FEE7206C38B1502080F31188BFF34F8F17
:10335000BFF36F8FFEE700F00FF9DFF8F4804FF056
:1033600000094FF0805748B9059838B1502080F3D4
:103370001188BFF34F8FBFF36F8FFEE7FFF7FEFBA0
:10338000A56BC5B151462046FEF71EFF6D1EA56315
:10339000206950B104F1100000F0A6F928B1C8F876
:1033A0000070BFF34F8FBFF36F8FFFF707FC012053
:1033B00006B0BDE8F087059808B11EB106E0FFF73A
:1033C000FDFB27E06846FFF7D7FC0126FFF7F6FB79
:1033D000FFF758FDFFF7D2FB94F94400401C01D1E0
:1033E00084F8449094F94500401C01D184F845903C
:1033F000FFF7E4FB05A9684600F02CF800282046FA
:103400000AD0FFF7B3F900F0A7F92046FFF742F81A
:103410000028B3D00020CBE7FFF73CF890B104F1CF
:1034200024000599FFF7B6FC2046FFF79FF900F04E
:1034300093F90028A2D1C8F80070BFF34F8FBFF3F3
:103440006F8F9BE72046FFF791F900F085F995E72C
:1034500004ED00E02DE9F0410C46050011D0C4B1A7
:10346000FFF78CFB174BDA686E682068911B471CCE
:1034700017D02F681B6A9F4219D0964217D8012493
:1034800010E0502080F31188BFF34F8FBFF36F8F90
:10349000FEE7502080F31188BFF34F8FBFF36F8F8B
:1034A000FEE70024FFF78AFB2046BDE8F081884252
:1034B00005D9401A20602846FFF75EFCF1E700209E
:1034C0002060DCE71C0000202DE9FF5F8346DDE97A
:1034D0000E87994616468A469000FFF77DF905004B
:1034E0001CD05C20FFF778F9040014D0002025637D
:1034F00084F85900CDE90240CDE900874B463246B9
:1035000051465846FEF72CFF2046FEF7C9FD012024
:1035100004B0BDE8F09F2846FFF764FB4FF0FF3092
:10352000F6E7F0B585B0DDE90B640A9DA6B1DCB124
:103530005C2700972663022684F85960002604AFB2
:10354000CDE90246CDE90057FEF70AFF2046FEF717
:10355000A7FD049805B0F0BD502080F31188BFF39B
:103560004F8FBFF36F8FFEE7502080F31188BFF3BA
:103570004F8FBFF36F8FFEE70548416919B1006BAC
:1035800018B10020704701207047022070470000EA
:103590001C0000200148C068704700001C0000208B
:1035A0002DE9F0412E4C0027206B28B1A069401C6A
:1035B000A0613846BDE8F081E668761CE66013D16C
:1035C000606B006838B1502080F31188BFF34F8FD3
:1035D000BFF36F8FFEE7606BA16B6163A063206A2E
:1035E000401C2062FFF742F8A06ADFF8788086422C
:1035F00009D3606B0068A0B1606BC068C56868687B
:10360000864211D2A0622068C06A00EB800158F89F
:103610002100012800D90127E0690028C9D001272D
:10362000C7E74FF0FF30EDE7281DFFF74BFAA86A18
:1036300018B105F11800FFF745FAE86A21698842D8
:1036400000D9206100EB800108EB8100291DFFF704
:1036500089FAE86A2168C96A8842CAD30127C8E79B
:103660001C0000203C04002070B504004FF0000155
:1036700033D01B4D2868844207D0502080F3118836
:10368000BFF34F8FBFF36F8FFEE7206D38B1401E41
:103690002065E36CE26A9A421FD040B11DE05020E1
:1036A00080F31188BFF34F8FBFF36F8FFEE7201DAC
:1036B000FFF708FAE06CE062C0F13800A061E06A50
:1036C0002969884200D92861064900EB800001EB96
:1036D0008000211DFFF746FA0121084670BD000059
:1036E0001C0000203C04002070B5C068C46854B1C0
:1036F00004F118000646FFF7E5F9144D286B50B1A8
:103700003146134815E0502080F31188BFF34F8FE6
:10371000BFF36F8FFEE7201DFFF7D4F9E06A296938
:10372000884200D928610B4900EB800001EB800042
:10373000211DFFF717FAE06A2968C96A884202D991
:103740000120E86170BD002070BD00001C00002059
:10375000C40800203C0400202DE9F0472C4D002433
:103760002746286B38B1FFF709FA286B401E2863FB
:10377000286B40B146E0502080F31188BFF34F8F93
:10378000BFF36F8FFEE7A968224E0120D1B3A6F5E3
:10379000916980463068E0B1F068C46804F11800AF
:1037A000FFF790F9201DFFF78DF9E06A296988423B
:1037B00000D9286100EB800109EB8100211DFFF792
:1037C000D1F9E06A2968C96A8842E3D3C5F81C8048
:1037D000E0E70CB1FEF74AFFAC694CB14FEA0806CE
:1037E000FFF7DEFE00B1EE61641EF9D10020A86192
:1037F000E86938B10849012738070860BFF34F8FDF
:10380000BFF36F8FFFF7DAF93846BDE8F0870000A5
:103810001C000020C408002004ED00E010B586B0B4
:10382000FEF7A6FC114C2068B8B10020039004906C
:1038300005AA04A903A8FFF763F9DDE90321022023
:103840008DE8070000230AA10B48059AFFF769FEDF
:10385000606010B106B0012010BD502080F31188C7
:10386000BFF34F8FBFF36F8FFEE7000058000020BB
:10387000546D722053766300492700082DE9FF41FB
:103880001E46134602000A9D4FF0000016D0144C4D
:103890002768002F0FD0CDE900130292062917DA0E
:1038A000FFF76AFE02284FF000030FD0002269469E
:1038B0002068FFF723FC04B0BDE8F081502080F3BE
:1038C0001188BFF34F8FBFF36F8FFEE72A46EEE7F5
:1038D0000023324669463846FFF7C0FCEBE700009C
:1038E000580000207C3900080000000000000000A3
:1038F00000000000000000000002000018000000AE
:1039000000000000000000008839000800000000EE
:1039100000000000000000000000000000020000A5
:1039200008000000000000000000000070390008DE
:103930000000000000000000000000000000000087
:1039400000000000010202030405060708090A0B33
:103950000C0D0E0F1010000000000000000001020E
:103960000304060708090000000001020304000028
:10397000556172745F5175657565000064656661B7
:10398000756C745461736B00554152545F7461736C
:103990006B000000B4390008000000209C0000000B
:1039A00028010008503A00089C00002094220000E2
:1039B00044010008000000000000000000000000BA
:1039C00001000000100000000000000000127A005A
:1039D00000000000000000000000000000000000E7
:1039E00000000000000000000000000000000000D7
:1039F00000000000000000000000000000000000C7
:103A000000000000000000000000000000000000B6
:103A100000000000000000000000000000000000A6
:103A20000000000000000000000000000000000096
:103A30000000000000000000000000000000000086
:103A40000000000000000000AAAAAAAA00000000CE
:04000005080000ED02
:00000001FF
